:020000022000DC
:1070000000000220757302005D7302005F730200CE
:1070100061730200637302006573020000000000E8
:107020000000000000000000000000006773020084
:1070300069730200000000006B7302006D730200B0
:10704000F58902006F730200718E0200D58F020075
:107050006F7302006F730200F18C02006F73020005
:107060006F7302006F7302006F7302006F73020090
:107070006F7302006F7302006F7302006F73020080
:107080006F730200717E02006F7302006F73020063
:107090006F7302006F730200E99C02006F730200BD
:1070A0006F7302006F7302006F7302006F73020050
:1070B0006F7302006F730200000000000000000008
:1070C0006F7302006F7302006F7302006F73020030
:1070D000E9A502006F7302006F7302006F73020074
:1070E0006F730200000000000000000000000000BC
:1070F000000000006F730200000000006F730200C8
:10710000000000000000000000000000000000007F
:10711000000000000000000000000000000000006F
:10712000000000000000000000000000000000005F
:10713000000000000000000000000000000000004F
:10714000000000000000000000000000000000003F
:10715000000000000000000000000000000000002F
:10716000000000000000000000000000000000001F
:10717000000000000000000000000000000000000F
:1071800000000000000000000000000000000000FF
:1071900000000000000000000000000000000000EF
:1071A00000000000000000000000000000000000DF
:1071B00000000000000000000000000000000000CF
:1071C00000000000000000000000000000000000BF
:1071D00000000000000000000000000000000000AF
:1071E000000000000000000000000000000000009F
:1071F000000000000000000000000000000000008F
:10720000354936480A1A02D0072291438D4634493F
:1072100034480A1A06D00722914381F309880222D2
:1072200082F3148830483149314A00F044F831483B
:107230003149324A00F03FF831483249324A00F0D1
:107240003AF832483249334A00F035F83248334987
:10725000334A00F030F833483349344A00F02BF811
:1072600033483449344A00F026F83448344900227F
:1072700000F02CF833483449002200F027F8334856
:107280003349091A082902DB002202604160314AB1
:1072900090471F481F49884205D00268043003B454
:1072A000904703BCF7E700208646EC46002000210B
:1072B000294A9047FEE7884207D0521A05D0037842
:1072C00001300B700131013AF9D17047884202D088
:1072D00002700130FAE770470000022000F8012038
:1072E000000002200000022030D40200E82A002022
:1072F000142B0020D0730200D073020082CC020055
:1073000030D40200E82A0020E82A002060CD0200E4
:1073100060CD020060CD020060CD020060CD0200B1
:1073200060CD020060CD020060CD020030D40200CA
:107330005CD40200142B0020142B0020142B0020FE
:1073400037380020383800203C3800203C380020F6
:107350003C4000209D730200C5960200FEE7FEE758
:10736000FEE7FEE7FEE7FEE7FEE7FEE7FEE7FEE7F5
:1073700000F002B8FFF7FCBF0F484FF00701884349
:1073800085460E4880470E48016841F4700101604F
:10739000BFF34F8FBFF36F8FFFF732BF09480A4922
:1073A0000A4A884207D0521A05D0037801300B7080
:1073B0000131013AF9D1704700000220C585020071
:1073C00088ED00E060CD0200E82A0020E82A0020D5
:1073D00000487047303800207047000007B5044B64
:1073E0000093044A402300F032F803B05DF804FB38
:1073F000F9730200152B00202DE9F8438846144646
:10740000B2B10F4B0F4E0325002743F0010922466E
:1074100008EB0701002002F0B5FA0744241A48B926
:1074200033782BB14FF47A40C847013D02D1357013
:10743000BDE8F88301233370002CE8D1F8E700BFE2
:1074400060CD0200142B0020704702F0CFBAF0B5D7
:1074500095B01D46164608460C4601F06DF81A9B7D
:107460000D93CDE9086500252B46082205A9204685
:107470000A958DF82C500C9501F07BF8079B029330
:10748000069B03939DF814308DF8115003F003020E
:10749000012A1DD1BDF81420059DC3F3C203C2F318
:1074A00083168DF81030B20008230EA9204601F093
:1074B00060F8C5F3952508AB0093324602AB0EA9E0
:1074C000284600F027FB204601F03AF815B0F0BD41
:1074D000022AF8D1BDF81650C3F3C203C5F38915CB
:1074E0008DF810300827082D2E4628BF08263B4669
:1074F00032460EA9204601F03CF8AD1B08AB02AAAB
:1075000031460EA8374400F069FB002DEBD1DAE7D5
:1075100008B5FFF79AFF0448042100F065FA034B11
:1075200001225A7108BD00BF50CD0200E82A002098
:10753000037813F0040216D003F00303012B03D0E9
:10754000022B09D0012070470A6800880232C0F37C
:10755000831002440A60F5E70B684288023303EBAC
:1075600092130B60EEE71046704700002DE9F04FD4
:1075700087B000230446861C0DF107000F46154610
:107580008DF8073000F024FC404A51683960936858
:1075900003F580735B1A924602F21C4702F5836979
:1075A00002F21448B3421AD30020002D69D004F02F
:1075B0000F039B0143F0050363F30F00DAF8043077
:1075C000DAB203321E444AF822009DF80700CAF8D6
:1075D000046000F021FC012007B0BDE8F08F01211C
:1075E000384600F0D4FC484600F0E9FC404600F084
:1075F000E6FCDAF808000290C0B203300AEB800023
:1076000002A9FFF795FF029B30BBDAB20AEB8202B8
:10761000D16803919A1C0133DBB20AEB8303029217
:10762000D3F80CB001F00303012B22D0022B15D0AC
:107630008346404600F0C6FC10B1029BCAF80830F1
:107640005946384600F0A3FCDAF80830DAF804208E
:1076500003F580739B1AA5E7D8B2CEE7BDF80E30CC
:10766000C3F3891303334FEA1B4B02EB93030293DB
:10767000DFE7BDF80C30C3F383134FEA1B4B134411
:10768000F5E7A40544F0060098E700BF282C002089
:10769000064B074810B501221A7000F006FF044699
:1076A00010B9044800F06FFF204610BD282C0020C0
:1076B000BCCC02009CCD020030B50A4C71B10A4A24
:1076C0000A49121BD20800239A4201D1002030BD82
:1076D00031F82350854202D00133F5E7034654F8D0
:1076E0003300F4E7D0CC020050CD0200E82A00209D
:1076F000094B013903EBC000032909D8DFE801F089
:107700000A020406042070470079704740797047E8
:107710000020704702207047D0CC0200034BD3E911
:107720000130C31A58425841704700BF282C00202E
:107730002DE9F04186B0FFF7F1FF0546002840F043
:10774000E680744CC4F81804BFF34F8FA36802930B
:10775000DBB2033304EB830002A9FFF7E9FE029BCF
:1077600018B1D4F81824002A55D0DAB2991C013384
:1077700004EB8202DBB204EB8303D268DB68049380
:1077800002F00303022B039202914FD1BDF80E3099
:107790006148C3F38917502F3E4628BF502666F331
:1077A0008F1306F10801ADF80E3000F096FE054685
:1077B000002800F0978000F0BFFE002303A90822F4
:1077C000284600F0CCFE0299CB43DBB20133C9B2AC
:1077D0000331B6EB830F4FEA830804EB810122D912
:1077E00008234246A6EB0806284600F0B8FEF6B28B
:1077F0004A4908F108033246284600F0B0FE029BD1
:10780000033703EB97070297D4F81834002B41D1C4
:10781000D4F8106451E062689A4299D8A260284670
:1078200006B0BDE8F08108233246E5E7012B59D1C7
:10783000BDF80C303848C3F38311062928BF062150
:1078400061F3891302318900ADF80C3000F045FE78
:107850000546002846D000F06FFE0023082203A949
:10786000284600F07CFE0026BDF80C20C2F38312EF
:10787000B300964203F10803C6D202994A1CC9B26A
:107880000331029204EB81010422284600F067FED6
:107890000136E9E7284600F053FEFFF73FFF80F08E
:1078A0000100C5B2BBE7F3685B7923B133682946B1
:1078B0001B6830469847F3681E68002EF3D12846AF
:1078C00000F03EFE0DF107008DF8076000F080FA31
:1078D000D4F818340BB9029BA3609DF8070000F0A0
:1078E0009BFADAE7D4F8104454B90D4B0D480E4911
:1078F000C01AC008000440F0020000F05DF8CCE7B8
:10790000236820469B689847E3681C68ECE70025DD
:1079100085E700BF282C0020BCCC0200342C0020BE
:10792000D0CC020000CD020084CD02002DE9F34747
:1079300004460E46924601A9012218469946FFF7D1
:1079400015FE1B4F10B3019D4FF00008AA1CC8453F
:1079500008EB020123D11748002100F0E9FA80F377
:107960001000000440EA1440E4006B1C04F03804EA
:10797000DBB2EDB244F0010407EB8303033544EAC4
:10798000881444EA8624D86047F825403B781BB128
:10799000FFF7CEFE0028FBD102B0BDE8F087C9B2E8
:1079A00007EB81015AF82830CB6008F10108CEE7D7
:1079B000282C00204430002000231A46FFF7B6BFD1
:1079C00007B50123019201AAFFF7B0FF03B05DF8EC
:1079D00004FB07B5CDE9002302236A46FFF7A6FFA3
:1079E00003B05DF804FB000030B50F49D1F8102456
:1079F00003460020144634B9DC6820714AB9C1F846
:107A00001034226030BDE4682579854206D02468B0
:107A1000F1E7D268116821601360F3E701300A28AA
:107A2000E8D14FF0FF30EDE7282C0020084A38B5A8
:107A30000123D2F8104413701D4604B938BDE36821
:107A40005D71236820465B689847E3681C68F4E72B
:107A5000282C002007B503460846197A052911D0BD
:107A60005B7A2BB1094A0A49019000F00EFB01989C
:107A70000849019000F009FB019803B05DF804EBA0
:107A800000F0F8BA002AF8D0F2E700BFA8CD020053
:107A9000ADCD0200CDCD020030B5C38885B004461F
:107AA0000D4633B1144A00921449154A284600F095
:107AB000ECFA217A05291DD0637A4BB1A088FFF733
:107AC00017FE104B104953F82020284600F0DDFA2D
:107AD000227A0E4BA08853F8222003920021FFF750
:107AE000EBFD039A0A490346284605B0BDE830403D
:107AF00000F0CBBA05B030BDA8CD0200B8CD020071
:107B0000B0CD020034CE0200ADCD020058CE02004E
:107B1000D0CD02002DE9F04385B01F460C9D002317
:107B200095F80C902B7306460C469046294638462D
:107B3000FFF7B2FFB8F1060F09D8DFE808F004122A
:107B4000181F283340003146284600F09EFA0022D4
:107B500029463846FFF77EFF85F80C9005B0BDE852
:107B6000F08322683146284600F08FFAEFE7D4E927
:107B700000233146284600F088FAE8E7A36800931E
:107B80003146D4E90023284600F07FFADFE7E368B6
:107B90000193A36800933146D4E90023284600F0FE
:107BA00074FAD4E723690293E3680193A36800930E
:107BB0003146D4E90023284600F067FAC7E7636935
:107BC000039323690293E3680193A368009331460A
:107BD000D4E90023284600F058FAB8E708292DE92F
:107BE000F74F80460E4617461C463CD8002593F8B2
:107BF0000C901D7319461046FFF74EFFDFF888A062
:107C0000DFF888B0AE4231D918F805205946204631
:107C100000F03BFA0135082DF4D11949194DDFF870
:107C200070A0204600F031FA4FF0000B5E4522D9DB
:107C300018F80B207E2A05D81046019204F046FF62
:107C4000019A00B92E225146204600F01EFA0BF18F
:107C5000010BBBF1080FE9D1012221463846FFF79D
:107C6000F9FE84F80C9003B0BDE8F08F5146204631
:107C700000F00BFACEE72946204600F006FAE6E7C8
:107C8000E4CD0200E2CD0200E0CD0200DACD020038
:107C9000E6CD02001FB50021039001AA44F20100C5
:107CA000CDE9011100F004F805B05DF804FB000017
:107CB00010B572B6FFF7BAFEFFF73AFD0028FBD108
:107CC000104B114C1149E41AE408240444F001005B
:107CD000FFF772FE0E4B1B68DB0700D500BE0D4997
:107CE00044F00200FFF768FEBFF34F8F0A490B4BC9
:107CF000CA6802F4E0621343CB60BFF34F8F00BF4A
:107D0000FDE700BFD0CC020000CD020077CE02001C
:107D1000F0ED00E083CE020000ED00E00400FA0583
:107D200008B50B4800F08EF80A4B0B49D3E9002345
:107D30001218D1E9000143F100038B4208BF8242CF
:107D400003D212F1807243F100031046194608BDB8
:107D5000F02A0020E0300020F830002037B505463A
:107D60000C460A4801A900F08DF860B10570446026
:107D700001A9064800F0B0F818B1054800F066F80F
:107D8000002003B030BD0420FBE700BFE830002036
:107D9000F02A002038B5037F04460D4683B982617E
:107DA000FFF7BEFF2369401941F10001C4E9020158
:107DB00003B1256121460020BDE83840FFF7CEBF62
:107DC000002038BD0023014603770120FFF7C6BF1E
:107DD00070B5EFF3108672B60C4A946801239CB913
:107DE00093600B4B0B4DD3F8801029401160C3F802
:107DF0008050D3F8841051604FF0FF32C3F88420D4
:107E0000047006B962B670BD0370FAE70031002055
:107E100000E100E0FC06FFBD084B9A6810B55AB1BE
:107E200050B9EFF3108172B6054A1C6814605C68A3
:107E30005460986001B962B610BD00BF00310020E7
:107E400000E100E00368D3F80405704790F90430BE
:107E5000002B09DB5A09012103F01F0301FA03F388
:107E60004032024941F82230704700BF00E100E093
:107E7000024B034A1B681068184700BF14310020EA
:107E80000C31002037B550E8013F9DB2C48925442C
:107E90008489A54228BF2D1B0489A54202BFBFF3D8
:107EA0002F8F002207E0C5EA030540E80154002CAB
:107EB000E9D14FF001028DF803200193019B9DF859
:107EC00003200B6002F0FF0322B10B880068184406
:107ED00003B030BD1846FBE70A884B889A4209D1A7
:107EE00050E8012FC2EA024240E80123002BF7D1FB
:107EF000012070470020704701F01F024B0901214B
:107F0000914000EB830000F01EB801F01F03012236
:107F10009A404B0900EB8300D14300F02CB84B0989
:107F200001F01F0150F82300C84000F00100704725
:107F300010B5034653E8000F0A4643E8002494F0C6
:107F4000000FF7D110BD10B5034653E8002F42EAE9
:107F5000010043E8000494F0000FF6D110BD10B505
:107F6000034653E8000F00EA010243E8002494F0BE
:107F7000000FF6D110BD10B5034653E8002F02EAFA
:107F8000010043E8000494F0000FF6D110BD10B5D5
:107F9000034653E8002F02EB010043E8000494F08D
:107FA000000FF6D110BD10B5034653E8002FA2EB29
:107FB000010043E8000494F0000FF6D110BD012148
:107FC000FFF7C1BF0021FFF7CABF10B590B1D0E9DC
:107FD000012301689B1ADBB20A60013BDBB2FF2B75
:107FE000026802D10020107110BD11684C1C146091
:107FF0000B70F2E70E20F7E737B5054600240DF1C8
:1080000007008DF80740FFF7E3FE2A686B681168E8
:1080100099420ED9481E106011F8014CEB68298A6C
:1080200001FB0434AB6811791B1ADBB2994238BFEB
:1080300013719DF80700FFF7EFFE204603B030BD37
:1080400037B5054600230DF107000C468DF80730C3
:10805000FFF7BEFE2A681368591C1160E968641AAC
:10806000298AB4FBF1F41C709DF80700FFF7D4FED9
:1080700003B030BD826810B504462AB14369016877
:10808000006998470023A36010BD0EB403B503999F
:1080900021B104AB01AA019300F076F802B05DF8BB
:1080A00004EB03B070470A2938B504460D4602D1E7
:1080B0000D21FFF7F8FFA3682268591CA160D55471
:1080C000D4E901329A4204D32046BDE83840FFF794
:1080D000D1BF38BD2DE9F84F9846DDE90A43154672
:1080E00082460F460A464FF00109AA420FD2C14507
:1080F00038BFC14613F0010B01D16CB90024012631
:10810000B8F1010F1BD908F1FF386E43F8E709F108
:108110000109B2FBF5F2E8E79B070ED5B8F1000FB5
:108120000CBF30262026A145E9D2013C31465046FD
:10813000FFF7B9FF002CF6D1E0E72026F3E7B7FB05
:10814000F6F39D42E1D9DFF83C80B7FBF6F35046E9
:1081500018F8031006FB1377FFF7A5FF3346AB4271
:10816000B6FBF5F6F1D2BBF1000F02D00CB1A14580
:1081700001D3BDE8F88F20215046013CFFF793FF63
:10818000F4E700BF9ACE02002DE9F74F05461746E7
:108190008846002900F0428118F8011B49B92B7B61
:1081A000002B00F03B81284603B0BDE8F04FFFF7FD
:1081B00061BF252940F0B780002698F800302D2BAC
:1081C000424608F1010823D0302B24D02B2B25D098
:1081D00000242A2B02F1010123D13B681A1D1B68E0
:1081E0003A601C440A4613782E2B26D101324FF0F8
:1081F000000A104610F8011BA1F1300CBCF1090F68
:108200001DD80A2303FB0A13A3F1300A0246F0E744
:1082100046F00106D1E746F00206CEE746F0040636
:10822000CBE711F8013CA3F130000928DBD80A2282
:1082300002FB0434303C0A46CBE74FF0000A12F848
:10824000011B01F0FB0068289046F8D0782909D876
:108250006F290CD8632962D022D8252963D05829E8
:1082600000F0888098F80030002B95D197E770399E
:108270000829F7D801A353F821F000BFF7830200C3
:108280006582020065820200858302006582020029
:10829000638302006582020065820200758302002A
:1082A000642901D06929DDD13A68D2F80090111D06
:1082B00089EAE9723960A2EBE9724FF0010B092AF1
:1082C00035DCD34538BFD3462CB1B9F1000F01DB03
:1082D000720700D5013CB30702D5BAF1000F03D0F5
:1082E000F00701D44CBB0024B9F1000F2DDAC9F11D
:1082F00000092D212846FFF7D6FE06F00302022AC8
:1083000004D1BAF1000F01D11CBB0024CDE9004615
:1083100053460A2249462846FFF7DCFEA2E73B689F
:108320001A1D19783A602846FFF7BDFE9AE70A231E
:108330000BF1010BB2FBF3F2C1E7A345D4D220212C
:108340002846013CFFF7AFFECCE77107D5D52B21BE
:10835000D0E7A345DAD230212846013CFFF7A3FE3F
:10836000D2E73968CDE900460A1D3A6053460A2231
:108370000968D0E739680A1D3A60CDE900465346DE
:108380001022F5E73B681A1D3A6016F00106D3F893
:10839000009028D1B9F1000F03D0484604F041FC09
:1083A0000646B44200D904BB09F1FF3919F8011F90
:1083B00000293FF457AF2846FFF775FEF6E7284639
:1083C0000136FFF770FE19F806100029F7D1A64212
:1083D000BFF448AF002C3FF445AF20212846013CB4
:1083E000FFF761FEF3E70026EDE720212846013C78
:1083F000FFF759FED5E73B681A1D3A603021284641
:108400001C68FFF750FE78212846FFF74CFE00223B
:108410000823CDE90032214610227CE703B0BDE8F5
:10842000F08F00BF2DE9F84FB0F806A04579D2F8DB
:1084300000B09DF828900AFB05F5043D88460BEB3B
:108440000301A94203F1040488BFA5EB030BB4FBAD
:10845000FAF607460AFB1644C2F800B04EB9AAEB7A
:1084600004055D4528BF5D46BBF1000F04D1BDE8A2
:10847000F88F3F68013EF1E7043408EB06003C4406
:108480002A46B9F1000F0DD02146ABEB050B04F0E5
:108490004AFBDA452E443F6855464FF0000428BF9A
:1084A0005D46E1E701462046EFE7FFF78EBDF8B5F0
:1084B00046790146721E0546002393422D6803D378
:1084C0000024A64202D8F8BD0133F6E70F6828461B
:1084D000FFF7B6FD01343946F3E72DE9F843068A84
:1084E000CD1C0746FFF788FD043E35440446B5FB26
:1084F000F6F5F0B14FF48073EDB28380C680013D94
:10850000076081464FF00008A84512D23846FFF7B1
:1085100073FD064648B163790133637108F10108C0
:10852000C9F8000007608146EEE72046FFF7BFFF6D
:1085300034462046BDE8F88301210430FFF727BD0B
:1085400010B5012104460430FFF72DFD10F0FF0F98
:1085500004D12046BDE81040FFF7A9BF10BD1FB5EC
:1085600003920022009203AAFFF75CFF05B05DF8BA
:1085700004FB1FB503920122009203AAFFF752FFEA
:1085800005B05DF804FB836800225A60C3E9042249
:108590009A60DA601A6070470B684A6843609342D9
:1085A00008BF0023016008BF43607047436843B1C0
:1085B0000268916852680B449342436004BF0023F1
:1085C00043607047524B1B680D2B57D14FF08041D1
:1085D0004FF080520023C1F80C31C1F81031C1F8BE
:1085E00038354C4BD2F80404C3F82005D2F80804FF
:1085F000C3F82405D2F80C04C3F82805D2F81004F7
:10860000C3F82C05D2F81404C3F83005D2F81804C6
:10861000C3F83405D2F81C04C3F84005D2F820048E
:10862000C3F84405D2F82404C3F84805D2F8280456
:10863000C3F84C05D2F82C04C3F85005D2F8300426
:10864000C3F85405D2F83404C3F86005D2F83804EE
:10865000C3F86405D2F83C04C3F86805D2F84004B6
:10866000C3F86C05D2F84424C3F87025D1F800345F
:10867000DB0744BF6FF00103C1F80034264AD2F88B
:10868000883043F47003C2F88830BFF34F8FBFF3D4
:108690006F8F4FF01023D3F80022002A03DBD3F8AA
:1086A0000432002B2FDA1D4B0122C3F80425D3F826
:1086B0000024002AFBD04FF010221221C2F8001231
:1086C000D3F80024002AFBD04FF010231222C3F865
:1086D0000422124B1A46D3F800140029FBD00021C3
:1086E000C3F80415D2F80034002BFBD0BFF34F8F32
:1086F00009490B4BCA6802F4E0621343CB60BFF335
:108700004F8F00BFFDE7074B074A1A60704700BF55
:108710003001001000C0004000ED00E000E001402A
:108720000400FA05F82A00200090D00342DF7047C9
:1087300038B5074C051E04F1080318BF1C46236812
:108740002BB11A6822605B6828469847F7E738BD66
:108750002031002020B9054B01225A70FFF7E8BFF5
:10876000012802D1014A9070F8E7704718310020C3
:1087700020B9034B01225A70FFF7DABF704700BFE0
:108780001831002038B50E4C2378B3B90D4863601A
:10879000A3602361E36000F0E1F8054601F08AFA86
:1087A00008B900F0E7F801232370074BD3F8003431
:1087B0000BB10123A370284638BD8525F5E700BF1E
:1087C00018310020558702000000014037B5184CD1
:1087D000A378054603F0FF029BB110B14368012066
:1087E000984700230DF107008DF80730FFF7F0FAE6
:1087F000E3689DF807000133E360FFF70DFB03B06A
:1088000030BD0DF107008DF80720FFF7E1FA25B123
:10881000226913463BB92A602561E368002BE7D142
:1088200000F0BAF8E4E79D42F7D01B68F2E700BF1A
:108830001831002037B50D4C00230DF107008DF8DD
:108840000730FFF7C5FAE368013BE360E36833B93B
:10885000074BD3F8005415B900F0ACF8A5709DF89B
:108860000700FFF7D9FA03B030BD00BF1831002070
:1088700000000140012813B50CD0032820D038B9DE
:10888000124B0122C3F88020BFF34F8FBFF36F8FCD
:1088900002B010BD0E4C00230DF107008DF807301B
:1088A000FFF796FA23780BB9FFF76CFFE3689DF8A2
:1088B00007000133E3600123A370FFF7ADFAE7E798
:1088C00000F058F8FFF7B6FFE2E700BF00E100E074
:1088D0001831002037B51B4C6378054603F0FF02C2
:1088E0009BB110B143680020984700230DF10700A9
:1088F0008DF80730FFF76CFA63689DF807000133C5
:108900006360FFF789FA03B030BD0DF107008DF801
:108910000720FFF75DFA25B1A268134653B92A6014
:10892000A5606368002BE7D101F0C4F930B1FFF70F
:10893000FDFEE1E79D42F4D01B68EFE700F04EF842
:10894000DAE700BF1831002000F18040002382B038
:10895000036003680193019B02B07047044A1379D6
:1089600023B90121106011711846704785207047A6
:108970002C310020074B1A68D20704D4C02283F898
:10898000002301221A604FF080430122C3F818250A
:10899000704700BF00E100E008B54FF48270FFF7B8
:1089A000D3FF4FF080430222C3F8042301229A60D0
:1089B00008BD00004FF0804208B50223C2F808331A
:1089C0004FF48270FFF7C0FF034B01211960D2F80A
:1089D0001834DB03FBD408BD0C00004008B54FF48D
:1089E0008070FFF7B1FF4FF080430122C3F80423EA
:1089F0001A6008BD114B1B6810B563B14FF480704D
:108A0000FFF7A2FF4FF080430122C3F808230C4B6D
:108A100000201B6898470B4B1B6873B14FF48270A2
:108A2000FFF792FF4FF080430222C3F80823044B64
:108A3000BDE810401B680120184710BD0001004030
:108A40002C3100200401004000F1804000F5C040BE
:108A5000002382B0036003680193019B02B070475A
:108A600003681F2B83BF03F01F03036001484FF00F
:108A7000A04070470003005007B5019001A8FFF720
:108A8000EFFF019B00EB8300D0F8003723F4403365
:108A9000C0F80037D0F8003743EA0141C0F80017AA
:108AA00003B05DF804FB0000054B4FF0FF320728D0
:108AB00043F8202084BFC01880F85220704700BFC0
:108AC0003431002038B51E4C94F86430ABBB40F212
:108AD000FF31FF205A09012A14BF4FF0FF320A4626
:108AE00003F01F05EA40D20748BFE21803F1010373
:108AF00048BF82F830002A2BECD10021C8B2FFF722
:108B0000D3FF01310C29F9D1062200210D4804F0D0
:108B100033F80D4BC02283F8062340221A604FF42D
:108B2000BE70FFF791FF094B4FF00042C3F80423DA
:108B3000012384F86430002038BD0820FCE700BF22
:108B4000343100209231002000E100E0006000405C
:108B5000034B93F86400003818BF0120704700BF32
:108B600034310020F7B53B4E3318054693F93030C9
:108B7000002B6CDA8B78C3F34003002B0BBF082467
:108B800000240C200820844202D1042003B0F0BD50
:108B900056F82470013743D1701946F8242080F824
:108BA000304013B9331983F852508B785A0717D4D1
:108BB000D80737D501A80195FFF752FF019B00EBBD
:108BC0008300D0F8003723F00203C0F800372248B2
:108BD000EA0805F007070123BB40875C3B43835449
:108BE0008B780A7813F0020328D0A40004F18044A3
:108BF00004F5C0442D02D4F8103523F44F3323F488
:108C00004073C4F810351204D4F8103505F47C55BF
:108C100002F4403215431D43C4F810550020B5E757
:108C20000134B0E701A84A780195FFF719FF019BCD
:108C300003F5E073920040F82320C8E7083C344471
:108C400094F85A5045EA821284F85A20E6E7082040
:108C50009CE700BF343100209231002073B5224CD4
:108C60002618054696F93020072A1ADD224492F884
:108C700052309B09032B0FD1019001A8FFF7F0FEA2
:108C8000019BD0F81015D94001F0010102312846AE
:108C9000FFF7F2FE02B070BD012B0CBF02210321D1
:108CA000F5E7D3B2072BF5D8930003F1804303F522
:108CB000C043D3F8100540F00100C3F8100502F1DD
:108CC0004000800080B2FFF7BFFE0029E2D096F995
:108CD000303054F82330002BDCD0012303FA02F2A9
:108CE000024BC3F80423D5E7343100200060004074
:108CF0002DE9FF470024CDE90244584D4FF480721E
:108D0000012102F1804303F5C04390B21B68012B9F
:108D100006D1D5F804330B4202D0FFF795FE0C4381
:108D20000432B2F5907F4FEA4101EAD14C4B1B6807
:108D3000012B11D14FF4BE70FFF786FE4FF0A04318
:108D400044F00044D3F820250292C3F82025D3F83C
:108D500020280392C3F8202814F0FF0F1AD0414FA7
:108D600000250126344210D0AB0003F1804303F507
:108D7000C043D3F81005D3F8101557F8253023B1A8
:108D8000C1F30141C0F3052098470135082D4FEA92
:108D90004606E7D1002C59DA324D334C334E4FF0B2
:108DA0000008012716F9013B5A1C3CD0C3F3C2014D
:108DB00004A801445FFA83F911F8081C03F03F028C
:108DC00003F0070307FA03F319422CD001A801921C
:108DD000FFF746FE019B03F5E07350F82330C3F321
:108DE000014ABAF1020F10460CBF03210221FFF71E
:108DF00043FE01A80192FFF733FE019B07FA03F33C
:108E0000C0F82035AB1893F9303055F8233053B102
:108E10004FEA9911032904D0BAF1020F19D101299F
:108E200001D11046984708F10108B8F1040FB9D1F3
:108E30004FF0A043D3F820250292C3F82025D4F8A0
:108E400020350393C4F820351343A7D104B0BDE8FF
:108E5000F087BAF1030FE6D10229E1E70060004094
:108E60007C61004034310020000300508E3100202E
:108E7000014B1B68184700BF9C3100200E4B9842E5
:108E800037B50C4602D0002003B030BD00230DF1F1
:108E900007008DF80730FEF79BFF084B1D7915B9C9
:108EA00001221C601A719DF80700FEF7B5FF002D26
:108EB000E9D01120E8E700BF002000409C310020ED
:108EC0007FB503788DF804304368029383688DF88A
:108ED0000C30C36804930369064A8DF81430064BBE
:108EE00001A853F8213052F82110984707B05DF8D7
:108EF00004FB00BFA4310020B431002030B4084D81
:108F000010F8044B45F82420064D45F8243023463C
:108F1000054C002A18BF224630BC00F081B800BFC3
:108F2000B4310020A4310020C18E020037B5D0F842
:108F300018358A69DBB28DF807304B6A93423EBF21
:108F40004A699DF80740D4544A6A91F82840531C56
:108F50004B6202323CB10C69A2428C6938BF0A6193
:108F6000944288BF8A610D69954205D9CB689B5CA4
:108F7000C0F81C3501200BE08C69944202D991F8AD
:108F80002030F5E7AB42F5D3A3422CBF00200120EF
:108F900003B030BD1F2886BF054A00F01F004FF008
:108FA000A042012303FA00F0C2F80805704700BF91
:108FB000000300501F2886BF054A00F01F004FF035
:108FC000A042012303FA00F0C2F80C05704700BF6D
:108FD0000003005007B50E4B0E490F4800221A60DF
:108FE0001B680193019BFFF7A1FF70B9887FFF28E1
:108FF00001D0FFF7CFFF00234B770B72D1E900318F
:10900000064803B05DF804EB184703B05DF804FBB5
:1090100008310040C431002000300040CC31002035
:109020002DE9F84F0679684D2C27774305EB070BA0
:1090300099469BF81C3080460C469246002B40F027
:10904000BF8062490068FFF719FF0146002840F021
:10905000B98045F807A0CBF80490237B2078012B3A
:1090600000F29A80FFF7A6FF23781F2B86BF03F03C
:109070001F03574A4FF0A04203F5E073012042F866
:1090800023006778FF2F00F08A803846FFF792FFB1
:109090001F2F8BBF07F01F033B464D4A4FF0A042E6
:1090A00003F5E073032042F82300A378FF2B79D067
:1090B0001F2B8BBF03F01F021A4645484FF0A040FC
:1090C00002F5E0724FF0040C40F822C0994698F87F
:1090D00004202C2000FB0252D377E078FF280ED02A
:1090E000FFF758FFE3781F2B86BF03F01F03384AB2
:1090F0004FF0A04203F5E073032042F8230098F8F4
:109100000400E2782C2303FB00539A77D8F8003050
:109110002278C3F80825A268C3F80C75C3F8109527
:10912000C3F82425627B277B003A18BF0122022F57
:109130003BD0032F3CD0012F01D142F00202C3F8F3
:1091400054252C2202FB005072436779AA5880F8FC
:1091500020700127C3F80075A2B1227943F30730CC
:1091600052010028C3F30733D2B224DB194C04EBBD
:10917000000C8CF80023400903F01F0307FA03F3E7
:1091800044F820302C2303FB065500236B77012382
:109190002B770846BDE8F88FFFF7FCFE64E74FF039
:1091A000FF3782E74FF0FF3991E742F00402C6E74C
:1091B00042F00602C3E7084803F00F03C254E1E798
:1091C0000821E6E71121E4E7C4310020D58F020031
:1091D0000003005000E100E014ED00E02DE9F7434A
:1091E00006793D4C2C2373439046E2180F46517F7D
:1091F000814600296CD1E3580BB10123537797E8DE
:109200000F002C2505FB064505F10C0C8CE80F0022
:10921000A87F0023FF2885F8283001D0FFF7CAFE79
:109220002C23B8F1000F09D003FB064300225A7724
:109230004FF00608404603B0BDE8F083D9F800506F
:109240000422C5F8082303FB0643C5F80881D5F8B6
:109250000821C3F824800092009A7A6892B13B6892
:109260001B78C5F81C35012A0FD93B685B78C5F817
:109270001C352C2101FB06F3E7587FB10423C5F808
:109280000433D7E793F82030EBE7FB68012BF0D9E4
:109290002C2303FB064393F82030E8E706FB01414B
:1092A000D5F80831002BFBD0C5F80871D5F8083186
:1092B00001932846019BFFF739FE0028F0D12C23AB
:1092C00003FB0644A07FFF28B4D0FFF763FEB1E79D
:1092D0004FF01108AEE700BFC4310020032811D8B9
:1092E000012A0AD101290FD100F10E02D2B20D4B91
:1092F00000EB40001A54002070470129F7D00229E2
:1093000004D049B1072070470022F8E7054B00EB75
:10931000400018444270EEE7024B00EB4000184456
:109320008270E8E7F031002008B501220221002018
:10933000FFF7D4FF08B1072810D10722022101202E
:10934000FFF7CCFF08B1072808D100210A22084600
:10935000FFF7C4FF10B1072808BF002008BD0000B8
:109360000388102B10B502D0112B1ED010BD1A4C43
:109370002168B1B901220846FFF7B0FF08B10728FC
:1093800024D1072202210120FFF7A8FF08B10728F6
:109390001CD1042202210020FFF7A0FF08B10728FA
:1093A00014D1236801332360E0E70B4A1368013BC3
:1093B0001360002BDAD1FFF7B7FF0028D6D0074B98
:1093C0001B68002BD2D0BDE810401847034B1B6828
:1093D000002BE6D09847E4E700320020FC31002063
:1093E000BFF34F8F0549064BCA6802F4E06213438E
:1093F000CB60BFF34F8F00BFFDE700BF00ED00E083
:109400000400FA051F288CBF094A4FF0A0424FF014
:109410000103D2F8041588BF00F01F0003FA00F022
:1094200020EA01030840C2F80835C2F80C0570476D
:109430000003005010B50D20FFF7E4FF084B09486A
:109440000949C01AC008000440F00300FEF7B4FA4E
:10945000064BBDE810405B6B41F28830184700BFF7
:10946000D0CC020000CD0200E2CE0200C4D0020047
:10947000084B09480949C01A10B5C008000440F05B
:109480000300FEF799FA064BBDE810405B6B41F212
:1094900088301847D0CC020000CD0200ECCE02008C
:1094A000C4D002002DE9F3413F4E404D01930F46D9
:1094B000804611201446FFF7A5FF3A464146304644
:1094C0002F8003F030FB3A4A3A483B493B4F801A21
:1094D000C008000440F003000090FEF76DFA224639
:1094E000019B37490098FEF774FA3A782B88344686
:1094F000002A36D0002B53D032490422304603F0E4
:10950000F5FAE0B950233370492373704E23B370DA
:109510002A884723F37004239A420CDC4FF4FA7034
:1095200001F036F8284B29789B6A1F48009302B057
:10953000BDE8F0411847191FE1540133ECE7234916
:109540000422304603F0D2FA1F4B5B6B30B93870FF
:1095500041F2883002B0BDE8F041184701223A706C
:10956000F6E7EBB119490422304603F0BFFA78B9A7
:10957000502333704F2373704E23B3702A884723D0
:10958000F37004239A42C9DD191FE1540133F9E74E
:1095900001233B700C4B5B6B009341F28830D9E7A1
:1095A00002B0BDE8F08100BF04320020FC2A002098
:1095B000D0CC020000CD0200F9CE0200FE2A00202D
:1095C00003CF020081CF0200C4D002007CCF020092
:1095D0000F4B502213B50F4C1A7049225A704E226D
:1095E0009A7020884722DA70042282420BDB012025
:1095F00000F0CEFF084B21789B6A0548019302B02A
:10960000BDE810401847111F99540132EDE700BF23
:1096100004320020FC2A0020C4D0020007B50D4B04
:109620000D480E49C01AC008000440F00300FEF7C0
:10963000C3F90B4B1B7823B103B05DF804EBFFF7C4
:10964000C7BF084B5B6B019341F2883003B05DF8F4
:1096500004EB1847D0CC020000CD020022CF02005C
:10966000FE2A0020C4D0020007B50D4B0D480E495C
:10967000C01AC008000440F00300FEF79DF90B4B30
:109680001B7823B103B05DF804EBFFF7A1BF084BD3
:109690005B6B019341F2883003B05DF804EB18472F
:1096A000D0CC020000CD02002FCF0200FE2A002005
:1096B000C4D0020000F5E0704FF0A043032243F84D
:1096C0002020704780B50D208CB0FFF7F3FF1120EC
:1096D000FFF7F0FF0F20FFF7EDFF4FF0A0434FF42F
:1096E0000042C3F808250C22C3F840274FF48041FC
:1096F000C3F82C270020FDF7CBFF08B1FEF7CAFA0C
:10970000FDF706FF504B51485149524EC01AC00850
:10971000000440F003000B90FEF74EF94E4A4F490B
:109720000B98FEF74DF94E490B981622FEF748F9B3
:10973000FFF728F80020FFF749F80020FFF7CAF8E4
:109740004FF080430125C3F8785500F01FFB4548D2
:10975000454B0360454B8360454B4360454BC360BD
:10976000454B036133689847F3683B4800249847AA
:1097700040F6B833CDE90743F3694FF008094FF0DD
:109780000708CDE903451F46224623462846CDE972
:109790000544CDE901591621CDF80080B847B369D9
:1097A00021464246CDE90845CDE904452846CDE9A4
:1097B0000644CDE90244CDE900491F462B46B8478F
:1097C0001120FFF71FFE0D20FFF71CFEC82000F040
:1097D000DFFE1120FFF716FE0D20FFF713FEC82055
:1097E00000F0D6FE1120FFF70DFE0D20FFF70AFE58
:1097F000C82000F0CDFE1120FFF704FE0D20FFF77A
:1098000001FEC82000F0C4FE1120FFF7FBFD0D2073
:10981000FFF7F8FD736B41F288309847356E4FF0D3
:10982000A044A847FDF784FF10B920BF40BF20BF68
:10983000D4F81035DA0301D4FFF7D2FDD4F810358F
:109840001B05EED4F8E700BFD0CC020000CD02002B
:109850003ACF0200C4D00200C0CA893657CF0200F6
:1098600068CF02004432002035940200A594020023
:10987000719402001D960200699602000369C16896
:109880008B429DBF8268D21802F1FF3203F1FF3391
:1098900094BF501A581A70472DE9F843D0E9029442
:1098A0000546A9EB04084068904520440F4614443F
:1098B00004D903F038F9EC60BDE8F8834246A4EB24
:1098C000090403F030F96868224607EB0801F0E765
:1098D0002DE9F843C5680646894617464FF000084B
:1098E0003469B3687068A54228BFE418013C621B64
:1098F0005C1BBC4228BF3C46944228BF14464946E4
:109900002844224603F00FF9B3682544AB4208BF50
:1099100000253F1BA044A144F560E1D14046BDE8CD
:10992000F883000010B5114C114AA2610223C4E96A
:109930000433104BE361A2644FF400730E4A0F49E5
:109940002362E26400231022E01DA3626362E362EB
:10995000A3656365E365226503F041F90849204684
:1099600003F03DF92023A37110BD00BF6032002039
:1099700086CF0200E8320020D83200208FCF0200CC
:1099800093CF0200F8B5184C182300FB033503FBF6
:1099900000402544C46A012C0F4616460FD0022C05
:1099A0001AD0F4B92846FFF769FF864205D8324637
:1099B00039462846FFF770FF34462046F8BD284652
:1099C000FFF75CFF8642344628BF044622463946EC
:1099D0002846FFF761FFF0E72846BDE8F840FFF7AB
:1099E00077BF0024E9E700BF60320020FFF79ABF8D
:1099F000034B1A8882420CBF18460020704700BFF4
:109A000004350020024B9B6903B11847704700BF23
:109A1000E834002037B50B46497A0F4A71B9D2E9CC
:109A200001141D7A0246002D18BF21465868FEF722
:109A3000B1F908B1FFF7E6FF03B030BD002119729C
:109A40005369002BF8D00122ADF806008DF80420F0
:109A500001A89847F0E700BFE83400204B8802884F
:109A60009A4213D842889A4210D380888A8840F25A
:109A7000F313984294BF031AC31A934206D800F214
:109A8000F310904234BF002001207047002070473F
:109A90000388122B70B5014659D004D8102B1ED064
:109AA000112B44D070BD502BFCD12F4BC288DB89C9
:109AB0009A42F7D1038A022BF4D186883046FFF709
:109AC00097FF05460028EDD001F1120000F0EEF8F6
:109AD00038BB6868FEF776F90028E3D009E0C37B5D
:109AE000012BDFD14FF6FF70FFF782FF054620B94B
:109AF0000420BDE87040FFF785BF1C4A8E880680B1
:109B0000002303721368C0F80A305368C0F80E309F
:109B100010310A30FFF7A2FF134B6872DB89002B6C
:109B2000C0D129463046BDE87040FFF773BF80883A
:109B3000FFF75EFF04460028B4D04068FEF742F904
:109B400008B1FFF75FFF4FF6FF732380AAE786880F
:109B50003046FFF74DFF05460028A3D008310A30F4
:109B6000FFF77CFF6872DCE7E8340020183500203E
:109B70000AB1FEF7C1B9FEF7C8B973B50191019CEE
:109B800006466CB100252C46294601A8FEF7C7F908
:109B900018B106EB440301349D800135142DF3D137
:109BA0003046346002B070BD2DE9F04703888488E8
:109BB000103B8CB005460A2B1FD8DFE803F0063FA8
:109BC0001E1E1E1E1E1E1E604400314EB368DB4367
:109BD000009371686846FEF7CEF9009901A8FFF777
:109BE000CCFF0DF108094FF00008019B984507D301
:109BF000132C13D90420FEF74DF80CB0BDE8F08704
:109C000039F802AB00270137514606EB8700FEF713
:109C10007CF91E2FF7D108F10108E6E71D4821461F
:109C2000FEF76AF91C482146FEF766F9EB7B022B2A
:109C3000E3D11A482146FEF75FF9DEE715482146D1
:109C4000FEF763F9D9E7027A15483F2A4FEA121561
:109C5000214694BF00220122FFF78AFF022D94BF04
:109C6000002201220F482146FFF782FF012D0E48F6
:109C700094BF002201222146FFF77AFFBDE7037A55
:109C8000002BBAD1427A0648C2F3C0022146F3E75C
:109C90002035002028350020243500202C350020D8
:109CA000383500203435002030350020007800F0B1
:109CB00001007047014B1878704700BF9C350020A9
:109CC00007B508496846FEF767FC019B13B903B066
:109CD0005DF804FBD3E9002090476846FEF766FC78
:109CE000F3E700BFB0CF0200FFF7EABF61DF7047C4
:109CF00030B5114DADF5017D4FF4FA740DF102014F
:109D000003A8ADF80240FFF7F1FF70B9294601A89A
:109D1000FEF742FC029B002BF0D003A8D3E9002100
:109D2000904701A8FEF742FCF4E7052801D0FDF7B3
:109D3000B1FF0DF5017D30BDC8CF0200024B1B788D
:109D40000BB1FFF7D5BF70479D3500204BDF704743
:109D50001FB50D4C01A8FFF7F9FF70B9214602A805
:109D6000FEF71AFC039B002BF4D00198D3E90021E5
:109D7000904702A8FEF71AFCF4E7052801D0FDF78A
:109D800089FF04B010BD00BFE0CF020007B500F0AE
:109D900079FC4FF0FF33064800931822192317214E
:109DA00000F094F800F0DCF8002003B05DF804FB4C
:109DB0009C37002070477047024B53F8203003B1A6
:109DC00018477047A035002030B51F299DF80C308A
:109DD000049C0FD80160037101F5E0706AB923B1EA
:109DE000012B08D0022B08BF01234FF0A0429B009B
:109DF00042F8203030BD0323F7E74FF0A04303259E
:109E0000012A43F82050F5D18A4014B9C3F80C2533
:109E1000F0E7C3F80825EDE702681F2A73B5054689
:109E20000C4626D82BB3194941F822309DF806304C
:109E300023F003038DF80630FEF78AFE20B9FEF703
:109E400041FE08B1FDF726FF012C2E6813D18DF8D5
:109E500004402B79ABB90E4A8DF8053001A9304684
:109E6000FEF780FE08B1FDF715FF01213046FEF731
:109E7000F5FE02B070BD022CE9D003238DF804304A
:109E8000E7E7012B0CBF03230123E4E7A035002003
:109E9000B99D020002681F2A09D8012393404FF0A0
:109EA000A04211B9C2F80C357047C2F808357047A6
:109EB00003681F2B9FBF4FF0A042D2F81005D84077
:109EC00000F0010088BF002070470000F0B51E467A
:109ED000124B04460F4694460FCB85B06D4685E87D
:109EE0000F000F4A62604FF00042002302920A9A6C
:109EF0008DF803202370237223731A4629462046C7
:109F00008DF802C08DF801708DF80060FEF7F6FF45
:109F100008B1FDF7BFFE05B0F0BD00BFECCF0200F9
:109F20000030004010B588B00446ADF8061008B9FE
:109F3000FDF7B0FE0DF106030DF10F0204930123AE
:109F4000CDE9062304A90022201D0593FFF746F959
:109F500008B1FDF79FFE9DF80F0008B010BD00008E
:109F600037B50F4D00240122CDE900422346284693
:109F70001621FFF729FF23462246A5F16400CDE90B
:109F800000440E21FFF720FFCDE90044234622467E
:109F90001521A5F15800FFF717FF03B030BD00BF32
:109FA000D03700200346032201480121FFF734BFC8
:109FB0007837002037B50F4D00240A2000F0E8FA6A
:109FC0002346012214212846CDE90044FFF7FCFE78
:109FD000142000F0DDFA2846CDE90044234622464D
:109FE0001421FFF7F1FE0A2003B0BDE8304000F075
:109FF000CFBA00BF6037002010B5034C2046FFF7F2
:10A0000057FF0128FAD010BD6C37002038B505463F
:10A01000FFF7F2FF28480021FFF73CFF1D212748EA
:10A02000FFF780FF09212548FFF77CFF2021234807
:10A03000FFF778FF00212148FFF774FF00211F4838
:10A04000FFF770FF012104461B48FFF723FFEDB126
:10A05000FFF7D2FF18480021FFF71CFF0D2117481A
:10A06000FFF760FF09211548FFF75CFF2021134827
:10A07000FFF758FF44F00801C9B21048FFF752FF3C
:10A08000BDE838400C480121FFF704BFFFF7B4FFDB
:10A0900009482946FFF7FEFE0D210848FFF742FF59
:10A0A00009210648FFF73EFF20210448FFF73AFF49
:10A0B00004F0F701E1E700BFD03700209C37002013
:10A0C00038B50D4CFFF776FEA4F13405204600218B
:10A0D000FFF7E0FEC0212846FFF724FF00212846B5
:10A0E000FFF720FF20460121FFF7D4FEFFF784FF92
:10A0F000BDE83840FFF75FBED0370020F8B5154601
:10A1000006460C4601F078F80E480F4F0021FFF785
:10A11000C1FE0D483146FFF705FF2544AC4209D189
:10A1200008480121FFF7B6FE842E09D0BDE8F840AB
:10A13000FFF762BF14F8011B3846FFF7F3FEEDE7A7
:10A14000F8BD00BFD03700209C37002070B5154601
:10A1500006460C4601F050F80F480021FFF79AFE22
:10A1600031460E480D4EFFF7DDFE0C480021FFF78B
:10A17000D9FE2544AC4207D107480121FFF78AFEEA
:10A18000BDE87040FFF738BF00213046FFF7CAFE38
:10A1900004F8010BEEE700BFD03700209C37002009
:10A1A00070B5154606460C4601F026F81048002109
:10A1B000FFF770FE0D210F48FFF7B4FE310A0D487E
:10A1C000FFF7B0FEF1B20B480A4EFFF7ABFE254495
:10A1D000AC4207D106480121FFF75CFEBDE87040A4
:10A1E000FFF70ABF14F8011B3046FFF79BFEEFE7AD
:10A1F000D03700209C37002007B501228DF80710CA
:10A200000DF10701FFF7CCFF03B05DF804FB000080
:10A2100070B5154606460C4600F0EEFF13480021C7
:10A22000FFF738FE1D211248FFF77CFE310A104867
:10A23000FFF778FEF1B20E480D4EFFF773FE0C48A3
:10A240000021FFF76FFE2544AC4207D107480121EA
:10A25000FFF720FEBDE87040FFF7CEBE002130467C
:10A26000FFF760FE04F8010BEEE700BFD0370020D7
:10A270009C37002007B501220DF10701FFF7C8FF49
:10A280009DF8070003B05DF804FB0000F8B5144624
:10A2900005460E4600F0B0FF0F48104F0021FFF7B3
:10A2A000F9FD0E210D48FFF73DFE29460B48FFF74B
:10A2B00039FE0025A4B2ABB29C4207D80648012162
:10A2C000FFF7E8FDBDE8F840FFF796BE715D384640
:10A2D000FFF728FE0135EEE7D03700209C3700203D
:10A2E000F8B5144605460E4600F086FF1248134F97
:10A2F0000021FFF7CFFD1E211048FFF713FE29466E
:10A300000E48FFF70FFE0D480021FFF70BFE00255A
:10A31000A4B2ABB29C4207D807480121FFF7BAFDAF
:10A32000BDE8F840FFF768BE00213846FFF7FAFDA8
:10A3300070550135EDE700BFD03700209C37002075
:10A34000022101F065B9022070470020704700002B
:10A3500070B5854DFFF750FEA5F134042846002165
:10A36000FFF798FD1D212046FFF7DCFD0521204663
:10A37000FFF7D8FD80212046FFF7D4FD00212046BD
:10A38000FFF7D0FD00212046FFF7CCFD0121064656
:10A390002846FFF77FFDFFF72FFE28460021FFF735
:10A3A00079FD0D212046FFF7BDFD05212046FFF771
:10A3B000B9FD80212046FFF7B5FD46F00801C9B27E
:10A3C0002046FFF7AFFD28460121FFF763FDFFF7A9
:10A3D00013FE28460021FFF75DFD1D212046FFF7F3
:10A3E000A1FD05212046FFF79DFD83212046FFF7B3
:10A3F00099FD00212046FFF795FD00212046FFF73B
:10A4000091FD012106462846FFF744FDFFF7F4FDC4
:10A4100028460021FFF73EFD0D212046FFF782FD73
:10A4200005212046FFF77EFD83212046FFF77AFDB8
:10A4300006F0F7012046FFF775FD28460121FFF7DA
:10A4400029FDFFF7D9FD28460021FFF723FD1D2137
:10A450002046FFF767FD05212046FFF763FD8421B5
:10A460002046FFF75FFD00212046FFF75BFD00213E
:10A470002046FFF757FD012106462846FFF70AFD53
:10A48000FFF7BAFD28460021FFF704FD0D21204605
:10A49000FFF748FD05212046FFF744FD84212046B3
:10A4A000FFF740FD06F0F7012046FFF73BFD284689
:10A4B0000121FFF7EFFCFFF79FFD28460021FFF782
:10A4C000E9FC1D212046FFF72DFD05212046FFF761
:10A4D00029FD85212046FFF725FD00212046FFF7B5
:10A4E00021FD00212046FFF71DFD012106462846DB
:10A4F000FFF7D0FCFFF780FD28460021FFF7CAFCDC
:10A500000D212046FFF70EFD05212046FFF70AFD2D
:10A5100085212046FFF706FD06F0F7012046FFF7EC
:10A5200001FD28460121FFF7B5FCFFF765FD284630
:10A530000021FFF7AFFC0D212046FFF7F3FC0921B6
:10A540002046FFF7EFFC20212046FFF7EBFC062119
:10A550002046FFF7E7FC28460121FFF79BFCBDE8FA
:10A5600070400120FFF752BDD03700200020FFF7D8
:10A570004DBD000038B5044638B1044D45F0010525
:10A580004FF47A40A847013CFAD138BD00D0020010
:10A59000FFF7F0BF012303720B4B0C4AD3F80415ED
:10A5A00010B5146802680331091B8A423FBFD3F813
:10A5B00004250332121B0260D3F8042501680A4403
:10A5C000C3F8402510BD00BF0040024024360020E3
:10A5D000044B1A680AB10021117202611860FFF77A
:10A5E000D9BF00BF20360020F8B5234B234C244DA3
:10A5F00021680022C3F84021C3F84421C3F8482150
:10A60000C3F84C21C3F80021C3F80421D3F8040592
:10A610002E68286041B1871B0A46126962B90B692E
:10A620002360CB6803B19847134F2E68206800233E
:10A6300098B903B12060F8BD1368BB4286BF1B1AEE
:10A640009B1900231360E8E7D0E90312012311B13D
:10A6500022608847E9E71046EAE7D7F80425016851
:10A66000921B9142F0D303B12060037A002BE2D118
:10A67000BDE8F840FFF78EBF0040024020360020C2
:10A6800024360020094B1F22C3F80825084AA021C0
:10A6900082F824130021C3F84413C3F804131021D3
:10A6A000C2F88411516001221A60704700400240D4
:10A6B00000E100E00023C0E90033C0E903130372A6
:10A6C00070470000F7B50446F8B11F4E3568F5B97C
:10A6D0000DF107008DF80750FDF77AFB33686768C6
:10A6E0001A491B4827602572ABB94FF48033C1F873
:10A6F0004433C1F80433D1F8043503602046FFF732
:10A7000067FF9DF80700FDF787FB03B0F0BDAC4283
:10A71000FBD02D69DBE7D1F804250168521A3A44D1
:10A72000226019688A42E9D31969186910B91C6155
:10A730002061E6E70868824202D90B460969F4E71E
:10A740001C612161DDE700BF20360020004002408F
:10A7500024360020F7B5174E34680546B4B1A8B1C9
:10A7600000270DF107008DF80770FDF731FB336806
:10A77000AB4214D11A7A18697AB148B11F723060AD
:10A78000FFF708FF9DF80700FDF746FB03B0F0BD9B
:10A79000094BC3F84403C3F804033060F2E72346CF
:10A7A00022469542246901D11C61EBE71346002C37
:10A7B000F6D1E7E72036002000400240F8B54FF41C
:10A7C00000454FF47A560027E5FB016704464FF435
:10A7D000FA4200233046394602F0B8F8054614B96B
:10A7E0002046FDF757FA2046FFF7B4FF032D38BF88
:10A7F0000325C4E90055F8BD064BD3F804054FF412
:10A80000FA414FF480420023E1FB0023D00B40EAE1
:10A810004340704700400240D0B50F4B4FF4004119
:10A820004FF47A560027E1FB0067D3F804454FF454
:10A83000FA4200233046394602F088F8201A20F008
:10A840007F404FF4FA414FF480420023E1FB0023A4
:10A85000D00B40EA4340D0BD004002400120704789
:10A86000034B1B6813B15B6803B11847704700BF07
:10A870002C360020034B1B6813B1DB6803B118476B
:10A88000704700BF2C360020014B01221A70704720
:10A8900028360020002000F01FBD000008B5134B33
:10A8A0001860134800F046FE002000F015FD01205E
:10A8B00000F0BFFD0021084600F0A6FF04210020A3
:10A8C00000F0A6FE00234FF6FF711A46084600F07E
:10A8D00001FE08490848FFF7EDFE08490848FFF760
:10A8E000E9FE084B00221A7008BD00BF2C3600207C
:10A8F00089A8020061A802001C38002075A8020087
:10A900004C3700202836002008B500F06FFCC31E2D
:10A91000DBB2022B9ABFC0F10600C0B2002008BD16
:10A9200000F022BE08B500F07CFF00B208BD0000B8
:10A9300038B50C46002340F201211A460546084668
:10A9400000F0C8FD00F05EFE0C4B01280C480CBF67
:10A9500083F88B4083F8844000F000FF21462846AE
:10A96000002200F0E5FC074B07481968FFF726FFB7
:10A97000BDE838400448FFF7A5BE00BF603700209F
:10A98000DC370020183800201C38002008B54FF0B4
:10A99000040000F08FFCBDE808400220FFF7F8BD7E
:10A9A00000F002BD00F01CBD38B50D46144600F0A5
:10A9B000DBFD2846FFF7C4FC00F01EFD204601F039
:10A9C00039FB074B002201F0EBF801F01FFB0146B9
:10A9D0000448FFF7F3FEBDE838400248FFF772BEB7
:10A9E00000408F401C380020FFF706BCFFF742BC38
:10A9F000FFF7D6BBFFF70CBC08B5FFF7A6FC03308A
:10AA000008BD000010B590B10A4B012219461C6820
:10AA1000A04206D39C68A04203D201EBC202107987
:10AA200010BD0132162A03F10803F0D1FEE71F2002
:10AA3000F6E700BF14D002000128094806D1094BEF
:10AA400080F88B1019707C3000F088BE90F883304D
:10AA5000012B04D1034B80F884101970F3E7704781
:10AA600060370020FF2A00202DE9F84F0E4620B164
:10AA7000012846D00020BDE8F88F5F4CB4F87E3046
:10AA800094F8810003EBD00001F0D4FA94F88330FD
:10AA90000022A3B3594B00F05DFF80463046894643
:10AAA00001F0C8FA02460B464046494600F052FF04
:10AAB00094F88530022B14BF00234FF0804300220E
:10AAC00000F048FF4E4B002201F06AF80646D4F829
:10AAD000A8000F4601F0C2FA02460B46304639463E
:10AAE00001F0FAF8474B002201F05AF841EC100B44
:10AAF00001F09AFE51EC100B01F088FABBE700233D
:10AB0000C9E7DFF8F4A09AF8B4B09AF8B530BAF80B
:10AB10008800CBF10C020621043B01FB03233A4AD7
:10AB200002EBC303D3E9008901F084FA374B00221A
:10AB300000F010FF42464B4601F032F89AF88A3096
:10AB40000446CBEB46069AF88C00012B06F107066B
:10AB500006EB80060CBF14200020C0EB86000D46DB
:10AB600001F068FA9AF8B730002B064614BF0220AD
:10AB70000020ABEB000080000F4601F05BFA0246BC
:10AB80000B463046394601F0A7F841EC100B01F0B6
:10AB900087FA9AF8B60057EC106B00F00300043007
:10ABA00001F048FA32463B4600F0FAFF002200234B
:10ABB00006460F4601F0CCF908B900260027104BD5
:10ABC00000223046394600F0C5FE42464B4600F0B2
:10ABD000E7FF22462B4600F0BDFE05A3D3E9002384
:10ABE00000F0B8FE41EC100B01F0C6FD82E700BF9B
:10ABF0002B8716D9CEF7EF3F603700200000F03FDB
:10AC00000000204000408F4030D102000000114081
:10AC100000234FF6FF7110B51A460446084600F0AF
:10AC200059FC34B109482146FFF7C8FD0748FFF732
:10AC300049FD074B1B782BB16FF07F40BDE81040FA
:10AC400000F080BB034B18688001F7E74C37002009
:10AC5000453700204837002000234FF6FF7110B51C
:10AC60001A460446084600F035FC34B1094821462E
:10AC7000FFF7A4FD0748FFF725FD074B1B782BB115
:10AC80006FF07F40BDE8104000F072BB034B1868C6
:10AC90008001F7E74C370020453700204837002077
:10ACA00073B5394C2378002B5FD0FFF783F800236E
:10ACB0002370FFF780F800F022FC04464FF6FF7087
:10ACC00000F03CFEE60708D53048FFF743FD304B67
:10ACD0001B6813B11B6803B19847A50719D52D4808
:10ACE0002D4DFFF737FDFF220DF107012B4800F036
:10ACF000C9FD284600F0E0FD254B1B684BB19E685E
:10AD00003EB195F90D3095F90C209DF807102348B8
:10AD1000B047600605D51E4B1B6813B11B6903B114
:10AD20009847210607D51A4B1B6823B19B6913B1BD
:10AD3000C4F300209847A2050CD500F057FA042868
:10AD400015D11248FFF706FD114B1B6813B15B6864
:10AD500003B19847A30608D50E48FFF7FBFC0C4B40
:10AD60001B6813B1DB6803B1984702B070BD00F0F7
:10AD70003DFA0528EED10748FFF7ECFC044B1B68B1
:10AD8000002BE7D0DB68E3E7283600201C380020E2
:10AD90002C3600204C37002030360020463600206C
:10ADA0000D4B10B504461870587000F017F85CB1E0
:10ADB00034214FF4E860FFF71FFA4421BDE810404A
:10ADC00040F24170FFF718BA14214FF4E860FFF722
:10ADD00013FA2421F2E700BF4436002008B5012011
:10ADE00000F000FC054B18785A78824204D0587065
:10ADF000BDE80840FFF7D4BF08BD00BF44360020BF
:10AE0000012808B506D0002000F0ECFB034B00221F
:10AE10005A7008BDBDE80840FFF7E0BF4436002087
:10AE200070B50D4616461C46FFF7EAFF284600F0AF
:10AE30009BFB0020FFF7ECFE0120FFF7A9FBFFF7CB
:10AE4000DBFC05462846FFF7E7FCA04204D30124BB
:10AE5000FFF79CFD204670BD00F0E3FC00B2864287
:10AE6000F0DA0024F4E700002DE9F74F0C9DBDF85F
:10AE700038809DF83C909DF840A00F4693460646CA
:10AE800050B101284FD03846FFF75AFA149A4B4B6D
:10AE90001A6003B0BDE8F08F494C0B2284F8A4007F
:10AEA000184684F8B020C4F8A850FFF7ABFD41F66F
:10AEB0000403BAF1000FA4F8803014BFF223012379
:10AEC00084F885304FEAC808012389F0010984F825
:10AED000863084F8B100C4F8ACB084F87C60A4F883
:10AEE0007E8084F8826084F88390FFF7D3FC94F826
:10AEF000A400003818BF0120FFF782FF04F1A4006E
:10AF000000F0BEFB04F17C0000F028FC2D4A106824
:10AF100051686B4603C3684600F083F940F2FF10A6
:10AF200000F0ACF9AFE72849254CC95C84F8B510AE
:10AF3000EAB29DF8341084F8A40084F8B42084F8B0
:10AF4000B61073BB0B3D012D8CBF002501250123DD
:10AF5000053A9A4284F8B75084F87C302AD8B8F180
:10AF60000B0F27D80C23A4F88830184B84F88A904C
:10AF70001B7884F88B309DF84C3084F88D3084F841
:10AF80008CA0FFF787FC94F8A400003818BF0120BC
:10AF9000FFF736FF0E4800F073FB0E4800F0DEFBB3
:10AFA00071E7012B04D1A5F10C035D425D41CEE7B1
:10AFB0000025CCE7A4F88880D7E700BF1838002028
:10AFC0006037002006D002000ED00200FF2A0020C9
:10AFD00004380020DC37002038B5FFF7FFFE0020E2
:10AFE00000F0B0F9002425460120FFF7D1FA00F067
:10AFF00018FC00F00100A0400134202C45EA0005B7
:10B00000F2D1FFF7C3FC284638BD00002DE9F04F10
:10B0100085B00E469DF8448069499DF85C400C70EF
:10B02000B8F1000F6749BDF83C90BDF840A09DF80D
:10B030004C7015469DF8482008BFFF220A708346D1
:10B0400020B101286CD005B0BDE8F08F5E4C00F057
:10B05000D8F90B233046C4F8A85084F8B03084F8EF
:10B06000A4B0FFF7CFFC574984F8B10041F60403C0
:10B07000002FA4F880300B7884F8843014BFF223BA
:10B08000012384F885304FEAC909012388F00108BB
:10B0900084F8863084F87CB0A4F87E9084F882B07E
:10B0A00084F88380FFF7F6FB94F8A400003818BFFB
:10B0B0000120FFF7A5FE04F1A40000F0E1FA04F17D
:10B0C0007C0000F04BFB414A1068516802AB03C39F
:10B0D00002A800F0A6F840F2FF1000F0CFF82846D2
:10B0E00000F0BCFF02460B460020394900F0F4FD99
:10B0F000384B002200F054FD044650460D4600F047
:10B1000099FF02460B462046294600F049FD324B86
:10B11000002200F045FD00F079FF304B186092E707
:10B120000020019300F06DF95FFA8AF000F075F9E4
:10B130002B4A254C019B925D84F8B630E9B284F825
:10B14000A4B084F8B41084F8B520234666BBA5F1FA
:10B150000B02012A8CBF0022012283F8B720053997
:10B160000122914283F87C2027D8B9F10B0F24D813
:10B170000C22A3F88820134A83F88A80127883F877
:10B180008B209DF8582083F88D2083F88C70FFF772
:10B1900025FE144800F074FA134800F0DFFA0F4B54
:10B1A0004FF6FF721A604EE7012E04D1A5F10C0094
:10B1B00042424241D1E70022CFE7A3F88890DAE784
:10B1C00045370020FF2A00206037002006D002000B
:10B1D0000000F03F0000204000408F404837002032
:10B1E0000ED0020004380020DC370020014B187814
:10B1F000704700BF3538002008B5064B1B780BB1EF
:10B20000062B03D1FEF75CFFFFF7A2F8BDE808406C
:10B21000FEF7F2BE353800200A4601460020FFF74F
:10B2200035B808B5014608224FF4D860FEF7B8FFDC
:10B23000002008BD07B5074B1B7840BAADF80400E5
:10B240002BB9022201A940F2BC60FEF7A9FF03B0AE
:10B250005DF804FB3638002007B5074B1B7840BA71
:10B26000ADF804002BB9022201A940F2BE60FEF73E
:10B2700097FF03B05DF804FB3638002010B50C4B87
:10B280001B7804469BB94FF4D760FEF7F3FFC4F375
:10B29000002100F0FE0001434FF4D760FEF7ACFF41
:10B2A000E1B240F2B960BDE81040FEF7A5BF10BDA5
:10B2B0003638002007B58DF80400FFF757F9012252
:10B2C00001A98420FEF71AFF024B00221A7003B076
:10B2D0005DF804FB3538002007B501228DF8070022
:10B2E0000DF107018020FEF709FF9DF80730002BC4
:10B2F000034B0CBF012202221A7003B05DF804FB5D
:10B300003538002007B5094B8DF8060004221A7065
:10B31000030C8DF804300322030A01A983208DF861
:10B320000530FEF7EBFE03B05DF804FB3538002076
:10B3300010B51446FFF770FF2046BDE81040FFF738
:10B34000E1BF000007B5094B8DF8060005221A7011
:10B35000030C8DF804300322030A01A982208DF822
:10B360000530FEF7CBFE03B05DF804FB3538002056
:10B3700013B50C4B04460522962140F6AC001A701A
:10B38000FEF73AFF230C8DF804300322230A01A9AB
:10B3900082208DF805308DF80640FEF7AFFE02B032
:10B3A00010BD00BF3538002007B5030C8DF8003004
:10B3B000030A8DF801300B0C49BA8DF80200ADF884
:10B3C00004100622694694208DF80330FEF796FE9D
:10B3D000024B06221A7003B05DF804FB35380020DA
:10B3E000002208B51146C520FEF788FE014B072252
:10B3F0001A7008BD3538002000221146D120FEF712
:10B400007DBE07B501228DF807000DF107019F20D1
:10B41000FEF774FE03B05DF804FB07B501228DF85A
:10B4200007000DF10701A020FEF768FE03B05DF8EC
:10B4300004FB07B501228DF807000DF107019620E6
:10B44000FEF75CFE03B05DF804FB0000134B98426E
:10B4500007B50BD94EF6E113ADF80430022201A96D
:10B460009820FEF74BFE03B05DF804FB0C4B9842AE
:10B4700002D94DF6D703EFE70A4B984202D94CF2B6
:10B48000C153E9E7084B984202D948F27513E3E744
:10B49000064B9842E2D946F66B73DDE700E9A43526
:10B4A00080F8A9328044E52D000B6B1B40FC541939
:10B4B00007B58DF8062004228DF804008DF80510DC
:10B4C00095200DEB02018DF80730FEF717FE03B053
:10B4D0005DF804FB07B552BAADF8042040BA082263
:10B4E00049BAADF80000ADF802105BBA69461046E3
:10B4F000ADF80630FEF702FE03B05DF804FB07B5B9
:10B50000022201A91220FEF721FE9DF804009DF8F9
:10B51000053043EA002003B05DF804FB07B50122C3
:10B520008DF807000DF107019D20FEF7E7FD03B040
:10B530005DF804FB07B50190FEF73CFD0198FEF7AE
:10B5400031FDFEF7BDFD0020FFF7C6FE0120FFF72D
:10B55000E5FF034B01221A7003B05DF804FB00BF46
:10B560003538002000000000F7B51D4D2B7804464B
:10B570001BB9FFF76BFF01232B709FED131B9FED92
:10B58000140B01F059F8204657EC106B00F066FDE3
:10B59000324604460D463B460FA1D1E9000100F0BA
:10B5A0009BFB0B4602462946204600F095FB00F027
:10B5B0002DFD042200BA01900DEB02018620FEF75A
:10B5C0009DFD03B0F0BD00BF000000000000394049
:10B5D00000000000000000400000000080847E4168
:10B5E0003438002007B5064B8DF80700187001228B
:10B5F0000DF107018A20FEF781FD03B05DF804FB21
:10B6000036380020014B1878704700BF36380020CC
:10B6100073B5054600200E46FEF795FE6FF0020456
:10B62000AC42B8BF2C46012803461BD10F2D024661
:10B630004FF000010CBF06200420FFF739FF0E2C4D
:10B64000A8BF0E24182140F6E700FEF7D5FD022220
:10B6500001A98E208DF804408DF80560FEF74EFD9F
:10B6600002B070BD0721012300220420FFF720FF54
:10B67000162CA8BF16243821E5E7000000000000C2
:10B6800037B5334A0446516810686B4603C3314BE3
:10B6900020781B78834201D0FFF7A4FF23781BB1E9
:10B6A000012B45D003B030BD606800F0D7FC0246E6
:10B6B0000B4621A1D1E9000100F00EFB0022264B30
:10B6C00000F06EFA00F0A2FC030C8DF80030030AC3
:10B6D0008DF80130237B8DF802008DF80330A068CF
:10B6E000637B8DF8043000F0B9FC9FED151B9FEDD6
:10B6F000160B04460D4600F09FFF0FA1D1E9000193
:10B7000053EC102B00F0E8FA02460B46204629467F
:10B7100000F0E2FA00F07AFC030C40BA8DF8053034
:10B72000ADF80600082269468B20FEF7E7FCB9E772
:10B73000236900930422F6E70000000080847E4124
:10B740000000000000003940000000000000004040
:10B75000C0D1020036380020000040401FB5284A02
:10B76000044651681068127A01AB03C31A70254B66
:10B7700020781B78834201D0FFF734FF23781BB178
:10B78000012B31D004B010BD637AF12B20D14FF6DC
:10B79000FF70FFF74FFD48F20500FFF75DFD022344
:10B7A0006288A188ADF8061052BAE188ADF804208D
:10B7B0008DF80B30227AA37A8DF80A20ADF80810A4
:10B7C0008DF80C30092201A98C20FEF797FCD9E7EF
:10B7D000F22BE5D141F60F50FFF72CFD41F221008D
:10B7E000FFF73AFD0623DBE7A3895BBAADF8043027
:10B7F000E389ADF80630238AADF808300622E2E787
:10B80000C8D102003638002007B502228DF80400A6
:10B810008DF805108F2001A9FEF770FC03B05DF8CC
:10B8200004FB07B5012201A91520FEF78FFC9DF846
:10B8300004004042401003B05DF804FB37B50446F5
:10B840000D46022201A91320FEF780FC0C4B1B7849
:10B85000012B11D140F20470FEF70CFDC0F3C710AC
:10B86000012809D140F20270FEF704FD20709DF816
:10B8700005302B7003B030BD9DF804302370F6E71F
:10B8800036380020F7B50D46064600240DF10701B5
:10B89000284617468DF80740FFF7D0FF2A78BA42AE
:10B8A00007D89DF807003146FEF71AFD204603B081
:10B8B000F0BD0120FBE7000013B50322044601A9F7
:10B8C0001420FEF743FC1B4B1A7822704AB1012A60
:10B8D00017D014220021204601F04EF90F232370C7
:10B8E0000DE09DF8043023719DF80530A2605B42A5
:10B8F0005B10A3719DF806305B425B10637102B070
:10B9000010BD9DF804309DF905205B425B10237348
:10B910009DF80530002AB6BFA3F580739B089B10E5
:10B9200063739DF806305B425B10A373024B1B6888
:10B930002361E4E7363800203038002007B50222C2
:10B9400040BAADF8040001A91046FEF7D7FB03B0DA
:10B950005DF804FB30B591EA030F00F18480841A8E
:10B9600071EB030C05D2121953EB0C03001B71EBA6
:10B970000C0140F2000CCFF6E07C1CEA430F54D0DF
:10B98000BCEB410F61D90C0DA4EB135E31EA0C0145
:10B9900041F4801133EA0C0343F48013DEF1200CF0
:10B9A0002AD303FA0CF5401941F1000122FA0EF5F1
:10B9B000401923FA0EF5694112FA0CF2CD0208D3B0
:10B9C00049085FEA30005FEA320228BF42F0010214
:10B9D0000134013C5FEA500C72F1004250F100006A
:10B9E00051EB04514FF4001313EB410F38BF30BD3E
:10B9F000090D0905002030BDBEF1200EBEF1200F5B
:10BA00001ED223FA0EF5401941F10001CEF1200CAF
:10BA1000124218BF012203FA0CF52A43CEE711EABD
:10BA20005C0F04BF0020002130BD1CEA410F04BFA1
:10BA300001F00041002030BD01F00041002030BD88
:10BA400021F4801101EB045130BD004218BF41F0D8
:10BA50000101BCEB410F08BF30BD4FF0FE4141F486
:10BA60007801002030BD83F00043841A71EB030E8F
:10BA700007D28EF0004E001B71EB0E01121953EB32
:10BA80000E0340F2000CCFF6E07C1CEA430FC6D058
:10BA9000BCEB410F72D90C0DA4EB135EC90241EA55
:10BAA0005051C00241F00041DB0243EA5253D2023E
:10BAB00043F00043DEF1200C41D312FA0CF522FAD8
:10BAC0000EF203FA0CF542EA050218BF42F0010239
:10BAD00023FA0EF3801A9941E30AC4F30A0411F021
:10BAE000404F03D418D0013C40004941013C23D4CD
:10BAF0004205C00A40EA4150C90A51EAC3715FEAEF
:10BB0000500C72F1004250F1000051EB045130BD75
:10BB100001002FD00020203C0029F9D0B1FA81FC8F
:10BB2000DCF1200E11FA0CF130FA0EF510FA0CF0DF
:10BB30002943A4EB0C04D9E70020D90730BDAEF1AE
:10BB4000200EBEF1200F0DD2CEF1200C03FA0CF521
:10BB500033FA0EF32A4318BF43F00103C01A61F110
:10BB60000001B9E721F00041C00A40EA4150C90A8A
:10BB700001EB045130BD0020002130BD004218BF50
:10BB800041F00101BCEB410F7FF467AFBCEB430F09
:10BB90003FF463AF30BD00BF83F00043FFF7DABE70
:10BBA000F0B540F2FF7681EA030C16EA115E1EBF83
:10BBB000B64516EA1355B5425AD021EA465141F42A
:10BBC0008011A1FB024723EA465343F48013AE449D
:10BBD000A0FB03650CF0004C36197D41A1FB034727
:10BBE00047F10003A0FB0217F619654153F100036A
:10BBF000094218BF46F0010640F2FE74B3F5007F1B
:10BC000013D2AEF5806EA6452BD24CEA0331280341
:10BC100041EA155140EA16503203450872F10042DC
:10BC200050F1000051EB0E51F0BDAEF2FF3EA645C3
:10BC300017D24CEAC321E80241EA555140EA565076
:10BC4000F202450872F1004250F1000051EB0E5132
:10BC5000F0BD0CF0004141F0FE4141F470010020C4
:10BC6000F0BD1EEA0E0FF4D50CF000410020F0BD2F
:10BC700016EA115F04BF01F000410020004218BF26
:10BC800041F0010116EA135F04BF03F000430022F4
:10BC9000124218BF43F0010306EA1354B44218BF1E
:10BCA0009EEA060F03D00CF000410020F0BD21F009
:10BCB000004123F00043B1EB065F06D8B3EB065F0B
:10BCC00003D8002918BF002BC3D140F20001C7F6EA
:10BCD000F8710020F0BD00BF2DE9F04391EA030E9A
:10BCE0000EF0004E40F20007CFF6E07717EA41056C
:10BCF0001EBF95EA070F17EA430595EA070F00F004
:10BD0000A1807F0D17EA135623EA475343F48013AB
:10BD100017EA115521EA475141F48011AD1B05F294
:10BD2000FD354FEAD31C1CF1010C4FF00047B7FB67
:10BD3000FCF77F01A2FB079C0024E3FB07C4DCF1B6
:10BD4000000CD9F100097CF1000CA0FB0762002077
:10BD5000E1FB072000275FEAC628E0FB0987760D94
:10BD600046EAC226520DF61900277A41E0FB0C6222
:10BD70005FEAC823E2FB09375FEA585848EAC62859
:10BD8000760D18EB070800214E41E2FB0C8602EB12
:10BD9000C020DA02E6FB09215B0D43EAC8235FEA13
:10BDA00058585B18002758EB0708E6FB0C38D102FF
:10BDB000E8FB0917520D42EAC3225B0DD219002796
:10BDC0007B41E8FB0C2308EBC6265FEAC128E3FBB6
:10BDD0000987490D41EAC221520DC91942F10002F9
:10BDE000E3FB0C12470019EB08095CEB010C72EB4A
:10BDF000040453EBC62047EB56530026B3F5000F5F
:10BE00007641AD190236D6F1200910FA09F4F04056
:10BE100013FA09F21043F340E40F001943F1000351
:10BE2000B3F5001F24BF5B08013540F2FE77BD4229
:10BE300004D24EEA05511944BDE8F0832D4224D5C1
:10BE4000714626E0004218BF41F00101124218BFBE
:10BE500043F00103B7EB410F2CBFB7EB430F1BE0DF
:10BE6000B7EB410F04BFB7EB430F15E017EA410FE3
:10BE700004BF17EA430F0FE017EA410FE0D017EABB
:10BE8000430F02D0B7EB430FDAD04EF0FE4141F43E
:10BE900070010020BDE8F08340F20001C7F6F871A0
:10BEA000F7E700BF4FF4001C1CEB410F98BF1CEBE1
:10BEB000430F11D851EA030C50EA4C0C5CEA020C17
:10BEC0000CD004D282428B418041013070479042B5
:10BED0009941804101307047002070470120704730
:10BEE0004FF4001C1CEB410F98BF1CEB430F0CD808
:10BEF00050EA410C08BF52EA430C08D0904208BFF8
:10BF000099420CBF0120002070470020704701209B
:10BF1000704700BF4FF4001C1CEB410F98BF1CEB97
:10BF2000430F11D851EA030C50EA4C0C5CEA020CA6
:10BF30000CD004D290429941804101307047824236
:10BF40008B418041013070470020704701207047CD
:10BF50004FF4001C1CEB410F98BF1CEB430F11D892
:10BF600051EA030C50EA4C0C5CEA020C0AD004D2F1
:10BF700082428B41804140427047904299418041CA
:10BF800040427047002070474FF4001C1CEB410FEB
:10BF900098BF1CEB430F11D851EA030C50EA4C0C2C
:10BFA0005CEA020C0AD004D290429941804140429E
:10BFB000704782428B418041404270470020704769
:10BFC000C1F30A5340F21E42D21A0EDD202A0AD8CB
:10BFD000CB0243EA505040F00040D04090EAE1707C
:10BFE000B0EBE1707047002070474B00004218BF73
:10BFF00043F0010313F5001F88BF21F0004111F049
:10C00000004058BF6FF00040704700BF0B0D40F27A
:10C010001E42D21A09DBCB0243EA505040F00040E6
:10C02000202A28BF2022D0407047490060EB000042
:10C03000704700BF80B110F0004248BFD0F100004F
:10C04000120D02F21D42B0FA80F18840521AC30A62
:10C05000400503EB025170470100704750B140F2B8
:10C060001D42B0FA80F18840521AC30A400503EB22
:10C07000025170470100704751EC100B01284941F3
:10C0800011F5001F8CBF01200020704751EC100BF0
:10C0900021F0004141EC100B704700BF0000000090
:10C0A000F8B555EC104B10EE100A0022002329467B
:10C0B000FFF716FFA8BBC5F30A51A1F2FF30002815
:10C0C00022462B4626DB33282BDC1F4DC0F12006F1
:10C0D0004FF0FF3405FA06F6C440A1F21F4125FADD
:10C0E00001F134430C43C54002EA040603EA0507A4
:10C0F00023EA050156EA070322EA040017D00028C4
:10C1000071F1000313DB114B0022FFF723FC41EC1C
:10C11000100BF8BD002C73F1000305DB9FED060B3F
:10C12000F8BD45EC104BF8BD9FED050BF8BD41EC9B
:10C13000100BF8BDAFF30080000000000000F03FDE
:10C140000000000000000000FFFF0F000000F03FB3
:10C1500070B555EC104B0646002210EE100A002375
:10C160002946FFF7BDFE20B1002345EC104B33609C
:10C1700070BD25F0FF4121F4E00141F07F53C5F38C
:10C180000A51224643F40013A1F2FE3143EC102B76
:10C19000316070BD000000002DE9704355EC104B7C
:10C1A0000646002210EE100A00232946FFF798FEEB
:10C1B000B8B9C5F30A53334440F2FE72934214DC1B
:10C1C000002EA04601DB002B0FDB002B09DD25F044
:10C1D000FF4222F4E00242EA035949EC108BBDE829
:10C1E00070839FED070BBDE8708300F075FC084B72
:10C1F0001B6803609FED040BBDE87083AFF3008004
:10C200000000000000000000000000000000F07FBF
:10C210002CD40200000000002DE9F84355EC104B2F
:10C22000FFF72AFF002840F0A58073A3D3E900237D
:10C2300020462946FFF78CFE002840F0A28070A31C
:10C24000D3E9002320462946FFF79EFE18B19FED53
:10C25000520BBDE8F88345EC104BFFF717FF6AA3BC
:10C26000D3E9002351EC100BFFF78EFE002840F0BD
:10C2700085800022002320462946FFF74BFE00263A
:10C28000002800F08780584F45A3D3E900232046BB
:10C290002946FFF785FC32463B46FFF75BFBFFF77D
:10C2A0008FFE0646FFF7C6FE3FA3D3E90023804674
:10C2B0008946FFF775FC02460B4620462946FFF7E4
:10C2C0006BFC3BA3D3E9002304460D464046494698
:10C2D000FFF766FC02460B4620462946FFF73AFB6D
:10C2E00002460B4680468946FFF75AFC32A3D3E943
:10C2F000002304460D46FFF753FC31A3D3E9002386
:10C30000FFF728FB22462B46FFF74AFC374B00225B
:10C31000FFF720FB42464B46FFF742FC2AA3D3E936
:10C3200000238046894620462946FFF739FC28A38A
:10C33000D3E90023FFF70EFB22462B46FFF730FC24
:10C34000294B0022FFF706FB42464B46FFF724FC31
:10C3500002460B4640464946FFF7BEFC224B0022F0
:10C36000FFF7F8FA013641EC100B3046FFF714FFE7
:10C37000BDE8F88345EC104BBDE8F8839FED160B44
:10C3800067E700F0A9FB1A4B1B6803609FED140BD5
:10C39000BDE8F883174F77E70000000000000000B9
:10C3A0003CF92F9E2C15F73F000000000030E63FBF
:10C3B000A80C615C10D02B3F1CDC586FA452F13EDE
:10C3C000E0F6B36FE4707C3F0938DE6F993F403F81
:10C3D000B35142718E71AC3F000000000000F03F8D
:10C3E000000000000000F07F0000E03F0000D03FB0
:10C3F0002CD402000000E0BFEF39FAFE422E864046
:10C40000D2BC7ADD2B2386C02342920CA19CC73B71
:10C410002DE9F04F85B055EC104BFFF72DFE0028AD
:10C4200040F0C1800022002320462946FFF758FD36
:10C43000002840F0BD800022002320462946FFF757
:10C44000A3FD002840F0AF8045EC104B03A8FFF798
:10C450007FFE55EC104B76A3D3E9002310EE100AB3
:10C460002946FFF775FD002840F0A780039B204672
:10C4700029465C1E00226C4B0394FFF78DFB04469B
:10C480000D4645EC104B4FF0FF30FFF785FE664B35
:10C4900051EC100B0022FFF75DFA02460B462046D6
:10C4A0002946FFF719FC02460B4606460F46FFF7E2
:10C4B00077FB49A3D3E9002304460D46FFF770FB41
:10C4C00047A3D3E90023FFF745FA47A3D3E90023A5
:10C4D0008046894620462946FFF75EFB22462B46CA
:10C4E000FFF75EFB42A3D3E90023FFF733FA42468E
:10C4F00082468B464B4620462946FFF751FB3EA31A
:10C50000D3E90023FFF748FB5246804689465B4645
:10C5100020462946FFF744FB39A3D3E90023FFF760
:10C520003BFB02460B4640464946FFF7D5FB024619
:10C530000B4620462946FFF733FB32463B46FFF7C2
:10C540002FFB02460B460398CDE90023FFF772FD4F
:10C55000DDE9002304460D4630463946FFF7FAF977
:10C5600029A3D3E9002306460F4620462946FFF7B4
:10C5700017FB02460B4630463946FFF7EBF924A37A
:10C58000D3E9002306460F4620462946FFF708FB5D
:10C5900002460B4630463946FFF7DCF941EC100BFA
:10C5A00005B0BDE8F08F9FED1C0B05B0BDE8F08F26
:10C5B0009FED1B0B05B0BDE8F08F002220462946F9
:10C5C0001A4BFFF7E9FA024645EC104B4FF0FF30EB
:10C5D00014460D4659E700BF29BD56B31544E9BFBF
:10C5E000EDAF16204A6230400FCE674B80D54140F8
:10C5F0007E2615FA838073409AB5B312FF07504028
:10C6000077900D9CFE0B8840A80C615C10D02BBF6E
:10C61000000000000030E63F000000000000F87F4E
:10C62000000000000000F0FF0000E03F0000F03FCD
:10C63000CD3B7F669EA0E63F2DE9F04157EC116BA4
:10C6400082B011EE100A4A4B3946002255EC104BCD
:10C65000FFF746FCC0BB0022002320462946FFF717
:10C660003FFC58B13046394600220023FFF71AFC40
:10C6700078BB9FED390B02B0BDE8F08139463046FA
:10C68000FFF79EFC8046FFF7D5FC32463B46FFF79E
:10C6900027FC40BB0022002320462946FFF774FCFC
:10C6A000B8B945EC104BFFF7F1FCFFF7B1FE30468F
:10C6B00053EC102B3946FFF773FA41EC100BFFF7E0
:10C6C000ABFD02B0BDE8F08145EC104B02B0BDE817
:10C6D000F08100F001FA274B9FED210B1B680360EE
:10C6E00002B0BDE8F081B8F1000F24DB2ED09FED41
:10C6F0001E0B18F0010F51EC100B22462B4603D0F5
:10C70000FFF74EFA41EC100B5FEA680822462B4611
:10C7100020462946AFD08DED000BFFF741FA9DED85
:10C72000000B04460D4618F0010F51EC100B224689
:10C730002B46E9D0E4E722462B460D490020FFF7BF
:10C74000CBFAC8F1000804460D46D0E79FED060B72
:10C7500091E700BFAFF30080000000000000000080
:10C76000000000000000F0FF000000000000F03FAB
:10C770000000F03F28D40200F8B555EC104B10EE45
:10C78000100A002200232946FFF7AAFB88BBC5F345
:10C790000A51A1F2FF30002822462B4622DB332823
:10C7A00027DC1F4DC0F120064FF0FF3405FA06F6D6
:10C7B000C440A1F21F4125FA01F134430C43C540A6
:10C7C00002EA040603EA050723EA050156EA07031D
:10C7D00022EA040003D0002871F100030FDB41ECD2
:10C7E000100BF8BD002C73F1000305DB9FED080B67
:10C7F000F8BD45EC104BF8BD9FED070BF8BD094B9C
:10C800000022FFF7C9F941EC100BF8BDAFF300802F
:10C810000000000000000000000000000000F0BF69
:10C82000FFFF0F000000F03FF0B553EC102BC3F3F7
:10C830000A56A6F2FF30132810EE105A83B019469C
:10C840004FEAD37431DC00284CDB3E4E064103EA4C
:10C85000060717432ED003EA56031D434FEA560638
:10C860000CD04FF48023132821EA060643FA00F186
:10C8700041EA06010CBF4FF000450025324800EBAD
:10C88000C4042A46D4E900450B4620462946FFF752
:10C8900061F8CDE90001DDE9000122462B46FFF7F2
:10C8A0007BF941EC100B03B0F0BD332806DDB0F589
:10C8B000806F40D043EC102B03B0F0BDA6F21346BE
:10C8C0004FF0FF30F0400242F4D015EA50024FEA38
:10C8D0005003D3D04FF0804225EA030542FA06F612
:10C8E0003543CBE723F000401043E3D0C3F31300FC
:10C8F000104345420543144800EBC400D0E90067EB
:10C90000590C2D0B490405F4002545EA0103304676
:10C910003946FFF71FF8CDE900013B46DDE900018C
:10C920003246FFF739F921F0004343EAC47141EC84
:10C93000100B03B0F0BD10EE100AFFF70BF841EC3E
:10C94000100BB9E7FFFF0F00D8D1020053EA020C29
:10C9500061D02DE9F04BB3FA83F51E0007BFB2FAA0
:10C9600082F502FA05F403FA05F41646C5F120052E
:10C970001EBF22FA05F73C43203556EA044C4FEA25
:10C98000144418BF0134A3464FF00009C846904232
:10C9900071EB030C39D3094207BFB0FA80F700FAF4
:10C9A00007F6B1FA81F701FA07F6C7F120071EBFB3
:10C9B00020FA07FC46EA0C062037B6FBFBFC7F1B7F
:10C9C000103F07F01F04C4F120060CFA04F42CFAFF
:10C9D00006F644BF34460026202FA4BF2646002476
:10C9E00054EA060C08BF012418EB040849EB0609B9
:10C9F000A4FB027CC01B06FB02CC04FB03CC71EB46
:10CA00000C01904271EB030CC5D20B46024649461D
:10CA10004046BDE8F08BB2FBF3F200007F2805D85A
:10CA2000034B185C034B5B5C184070470020704759
:10CA3000F4D1020074D20200A0F16103192B98BF57
:10CA400020387047A0F14103192B98BF2030704760
:10CA50007F2805D8034B185C034B5B5C184070477C
:10CA600000207047F4D1020074D20200A0F16103EB
:10CA7000192B98BF20387047A0F14103192B98BF9C
:10CA8000203070477F299ABF017001206FF02E007F
:10CA900070475AB10A787F2A0AD800B10260002193
:10CAA00019605960501A18BF012070470020704764
:10CAB0006FF02E007047000008B5034B5B689B6861
:10CAC0001B68984708BD00BF002B002008B509214E
:10CAD000FFF7F2FF08BD000000B5FAF779FC024B42
